{
  "_format": "hh-sol-artifact-1",
  "contractName": "FundTransfer",
  "sourceName": "contracts/contract.sol",
  "abi": [
    {
      "inputs": [],
      "stateMutability": "nonpayable",
      "type": "constructor"
    },
    {
      "anonymous": false,
      "inputs": [
        {
          "indexed": true,
          "internalType": "address",
          "name": "from",
          "type": "address"
        },
        {
          "indexed": true,
          "internalType": "address",
          "name": "to",
          "type": "address"
        },
        {
          "indexed": false,
          "internalType": "uint256",
          "name": "amount",
          "type": "uint256"
        }
      ],
      "name": "FundsTransferred",
      "type": "event"
    },
    {
      "inputs": [],
      "name": "owner",
      "outputs": [
        {
          "internalType": "address",
          "name": "",
          "type": "address"
        }
      ],
      "stateMutability": "view",
      "type": "function"
    },
    {
      "inputs": [
        {
          "internalType": "address payable",
          "name": "_to",
          "type": "address"
        },
        {
          "internalType": "uint256",
          "name": "_amount",
          "type": "uint256"
        }
      ],
      "name": "transferFunds",
      "outputs": [],
      "stateMutability": "nonpayable",
      "type": "function"
    },
    {
      "stateMutability": "payable",
      "type": "receive"
    }
  ],
  "bytecode": "0x608060405234801561001057600080fd5b50600080546001600160a01b0319163317905561034c806100326000396000f3fe60806040526004361061002d5760003560e01c80638da5cb5b14610039578063990dc9db1461007557600080fd5b3661003457005b600080fd5b34801561004557600080fd5b50600054610059906001600160a01b031681565b6040516001600160a01b03909116815260200160405180910390f35b34801561008157600080fd5b506100956100903660046102e0565b610097565b005b6000546001600160a01b031633146101045760405162461bcd60e51b815260206004820152602560248201527f4f6e6c7920746865206f776e65722063616e2063616c6c20746869732066756e60448201526431ba34b7b760d91b60648201526084015b60405180910390fd5b6001600160a01b03821661015a5760405162461bcd60e51b815260206004820152601960248201527f496e76616c696420726563697069656e7420616464726573730000000000000060448201526064016100fb565b600081116101aa5760405162461bcd60e51b815260206004820181905260248201527f416d6f756e74206d7573742062652067726561746572207468616e207a65726f60448201526064016100fb565b804710156102065760405162461bcd60e51b8152602060048201526024808201527f496e73756666696369656e742062616c616e636520696e2074686520636f6e746044820152631c9858dd60e21b60648201526084016100fb565b6000826001600160a01b03168260405160006040518083038185875af1925050503d8060008114610253576040519150601f19603f3d011682016040523d82523d6000602084013e610258565b606091505b505090508061029b5760405162461bcd60e51b815260206004820152600f60248201526e151c985b9cd9995c8819985a5b1959608a1b60448201526064016100fb565b6040518281526001600160a01b0384169033907f78e6250172d8e0a57d8d41f480f13581571a2d27bb2a93f5f7bd2511f5c22a6c9060200160405180910390a3505050565b600080604083850312156102f2578182fd5b82356001600160a01b0381168114610308578283fd5b94602093909301359350505056fea2646970667358221220f5c7c505c33e463f6dfe29ff5c95c54451bab81cbcc9c19c3f077ef6b10de7f364736f6c63430008040033",
  "linkReferences": {},
  "deployedLinkReferences": {}
}